{
  "contractName": "SmartTrust",
  "abi": [
    {
      "payable": true,
      "stateMutability": "payable",
      "type": "fallback"
    },
    {
      "anonymous": false,
      "inputs": [
        {
          "indexed": false,
          "name": "funding",
          "type": "uint256"
        },
        {
          "indexed": false,
          "name": "trustValue",
          "type": "uint256"
        }
      ],
      "name": "TrustFunded",
      "type": "event"
    },
    {
      "anonymous": false,
      "inputs": [
        {
          "indexed": false,
          "name": "payment",
          "type": "uint256"
        },
        {
          "indexed": false,
          "name": "trustValue",
          "type": "uint256"
        }
      ],
      "name": "PaymentMade",
      "type": "event"
    },
    {
      "constant": false,
      "inputs": [
        {
          "name": "_grantor",
          "type": "address"
        },
        {
          "name": "_trustee",
          "type": "address"
        },
        {
          "name": "_beneficiary",
          "type": "address"
        },
        {
          "name": "_basisPoints",
          "type": "uint256"
        }
      ],
      "name": "initializeParties",
      "outputs": [],
      "payable": true,
      "stateMutability": "payable",
      "type": "function"
    },
    {
      "constant": false,
      "inputs": [],
      "name": "fundTrust",
      "outputs": [],
      "payable": true,
      "stateMutability": "payable",
      "type": "function"
    },
    {
      "constant": false,
      "inputs": [],
      "name": "makePayment",
      "outputs": [],
      "payable": false,
      "stateMutability": "nonpayable",
      "type": "function"
    },
    {
      "constant": false,
      "inputs": [
        {
          "name": "_newPaymentPercentInBP",
          "type": "uint256"
        }
      ],
      "name": "changePercentage",
      "outputs": [],
      "payable": false,
      "stateMutability": "nonpayable",
      "type": "function"
    },
    {
      "constant": false,
      "inputs": [],
      "name": "terminateTrust",
      "outputs": [],
      "payable": false,
      "stateMutability": "nonpayable",
      "type": "function"
    }
  ],
  "bytecode": "0x608060405234801561001057600080fd5b50610b3e806100206000396000f30060806040526004361061006d576000357c0100000000000000000000000000000000000000000000000000000000900463ffffffff168063012d6dce14610126578063759f8843146101a657806375c5003e146101b0578063d41ab7b5146101c7578063d8d79700146101f4575b6000809054906101000a900473ffffffffffffffffffffffffffffffffffffffff1673ffffffffffffffffffffffffffffffffffffffff163373ffffffffffffffffffffffffffffffffffffffff16141580156100ca5750600034115b1561011b573373ffffffffffffffffffffffffffffffffffffffff166108fc349081150290604051600060405180830381858888f19350505050158015610115573d6000803e3d6000fd5b50610124565b61012361020b565b5b005b6101a4600480360381019080803573ffffffffffffffffffffffffffffffffffffffff169060200190929190803573ffffffffffffffffffffffffffffffffffffffff169060200190929190803573ffffffffffffffffffffffffffffffffffffffff1690602001909291908035906020019092919050505061034d565b005b6101ae61020b565b005b3480156101bc57600080fd5b506101c5610523565b005b3480156101d357600080fd5b506101f2600480360381019080803590602001909291905050506106a0565b005b34801561020057600080fd5b5061020961088a565b005b6000809054906101000a900473ffffffffffffffffffffffffffffffffffffffff1673ffffffffffffffffffffffffffffffffffffffff163373ffffffffffffffffffffffffffffffffffffffff161415156102f5576040517f08c379a000000000000000000000000000000000000000000000000000000000815260040180806020018281038252602b8152602001807f7568206f682c20796f7520646f6e27742068617665207468652072696768742081526020017f7065726d697373696f6e7300000000000000000000000000000000000000000081525060400191505060405180910390fd5b7f2fc2351e52d27875febe86ba14cd20dd79a832de23c339f6ab3f6ec2cbaf017d343073ffffffffffffffffffffffffffffffffffffffff1631604051808381526020018281526020019250505060405180910390a1565b600073ffffffffffffffffffffffffffffffffffffffff16600360009054906101000a900473ffffffffffffffffffffffffffffffffffffffff1673ffffffffffffffffffffffffffffffffffffffff16141515610413576040517f08c379a000000000000000000000000000000000000000000000000000000000815260040180806020018281038252601a8152602001807f636f6e747261637420697320616c726561647920696e2075736500000000000081525060200191505060405180910390fd5b33600360006101000a81548173ffffffffffffffffffffffffffffffffffffffff021916908373ffffffffffffffffffffffffffffffffffffffff160217905550836000806101000a81548173ffffffffffffffffffffffffffffffffffffffff021916908373ffffffffffffffffffffffffffffffffffffffff16021790555081600160006101000a81548173ffffffffffffffffffffffffffffffffffffffff021916908373ffffffffffffffffffffffffffffffffffffffff16021790555082600260006101000a81548173ffffffffffffffffffffffffffffffffffffffff021916908373ffffffffffffffffffffffffffffffffffffffff1602179055508060048190555050505050565b6000809054906101000a900473ffffffffffffffffffffffffffffffffffffffff1673ffffffffffffffffffffffffffffffffffffffff163373ffffffffffffffffffffffffffffffffffffffff1614806105cb5750600260009054906101000a900473ffffffffffffffffffffffffffffffffffffffff1673ffffffffffffffffffffffffffffffffffffffff163373ffffffffffffffffffffffffffffffffffffffff16145b1515610665576040517f08c379a000000000000000000000000000000000000000000000000000000000815260040180806020018281038252602b8152602001807f7568206f682c20796f7520646f6e27742068617665207468652072696768742081526020017f7065726d697373696f6e7300000000000000000000000000000000000000000081525060400191505060405180910390fd5b600160009054906101000a900473ffffffffffffffffffffffffffffffffffffffff1673ffffffffffffffffffffffffffffffffffffffff16ff5b6000809054906101000a900473ffffffffffffffffffffffffffffffffffffffff1673ffffffffffffffffffffffffffffffffffffffff163373ffffffffffffffffffffffffffffffffffffffff1614806107485750600260009054906101000a900473ffffffffffffffffffffffffffffffffffffffff1673ffffffffffffffffffffffffffffffffffffffff163373ffffffffffffffffffffffffffffffffffffffff16145b15156107e2576040517f08c379a000000000000000000000000000000000000000000000000000000000815260040180806020018281038252602b8152602001807f7568206f682c20796f7520646f6e27742068617665207468652072696768742081526020017f7065726d697373696f6e7300000000000000000000000000000000000000000081525060400191505060405180910390fd5b600081111515610880576040517f08c379a00000000000000000000000000000000000000000000000000000000081526004018080602001828103825260298152602001807f706c656173652073656c65637420612076616c7565206772656174657220746881526020017f616e20302e30303031000000000000000000000000000000000000000000000081525060400191505060405180910390fd5b8060048190555050565b600080600360009054906101000a900473ffffffffffffffffffffffffffffffffffffffff1673ffffffffffffffffffffffffffffffffffffffff163373ffffffffffffffffffffffffffffffffffffffff16141515610978576040517f08c379a000000000000000000000000000000000000000000000000000000000815260040180806020018281038252602b8152602001807f7568206f682c20796f7520646f6e27742068617665207468652072696768742081526020017f7065726d697373696f6e7300000000000000000000000000000000000000000081525060400191505060405180910390fd5b3073ffffffffffffffffffffffffffffffffffffffff1631905061271060045482028115156109a357fe5b0491506000821180156109b557508082105b1515610a4f576040517f08c379a00000000000000000000000000000000000000000000000000000000081526004018080602001828103825260318152602001807f6d616b652073757265207468657265206172652073756666696369656e74206681526020017f756e647320696e2074686520747275737400000000000000000000000000000081525060400191505060405180910390fd5b600160009054906101000a900473ffffffffffffffffffffffffffffffffffffffff1673ffffffffffffffffffffffffffffffffffffffff166108fc839081150290604051600060405180830381858888f19350505050158015610ab7573d6000803e3d6000fd5b507f0e9e4ec6fa83fe2a2893fd5d6517a890df20f72cc0ba40495b21e65d12223503823073ffffffffffffffffffffffffffffffffffffffff1631604051808381526020018281526020019250505060405180910390a150505600a165627a7a72305820bab7708b1dee039b42e8c3fe64bf3137c8b62531bd44193db8e2aec039dc0e810029",
  "source": "pragma solidity ^0.4.24;\n\n/**\n * @title SmartTrust\n * @author Josh Ma\n * @notice SmartTrust is the entry point for interacting with a corresponding OpenLaw 'Smart Trusts' agreement\n **/\ncontract SmartTrust {\n  /// @notice TrustFunded is emitted when the Grantor adds funds to the trust \n  event TrustFunded(uint funding, uint trustValue);\n  \n\n  /// @notice PaymentMade is emitted every time a payment is made to the beneficiary\n  event PaymentMade(uint payment, uint trustValue);\n  \n  address grantor;\n  address beneficiary;\n  address trustee;\n  address openlaw;\n\n  // percentages in this contract will be represented by basis points to permit small percentages i.e. 0.01% = 1 BP \n  uint paymentPercentInBP; \n\n  modifier onlyGrantor {\n    require(msg.sender == grantor, \"uh oh, you don't have the right permissions\");\n    _;\n  } \n\n  modifier grantorOrTrustee {\n    require(msg.sender == grantor || msg.sender == trustee, \"uh oh, you don't have the right permissions\");\n    _;\n  }\n\n  modifier onlyBeneficiary {\n    require(msg.sender == beneficiary, \"uh oh, you don't have the right permissions\");\n    _;\n  }\n\n  modifier onlyOpenLaw {\n    require(msg.sender == openlaw, \"uh oh, you don't have the right permissions\");\n    _;\n  }\n\n  /**\n   * @notice initializeParties is called by OpenLaw when the trust agreement is signed \n   * @param _grantor - grantor address\n   * @param _trustee - trustee address\n   * @param _beneficiary - beneficiary address\n   * @param _basisPoints - percentage of trust paid per period in basis points\n   */\n  function initializeParties (address _grantor, address _trustee, address _beneficiary, uint _basisPoints) public payable {\n    \n    // require that the openlaw variable is unset to implement access control \n    require(openlaw == address(0), \"contract is already in use\");\n    openlaw = msg.sender;\n    grantor = _grantor;\n    beneficiary = _beneficiary;\n    trustee = _trustee;\n    paymentPercentInBP = _basisPoints;\n  }\n\n  /// @notice fallback function which refunds ether if the caller is not the grantor. Will accept the ether if caller is the grantor\n  function () external payable {\n    if (msg.sender != grantor && msg.value > 0){\n      msg.sender.transfer(msg.value);\n    } else {\n      fundTrust();\n    }\n  }\n\n  /// @notice fundTrust allows the grantor to contribute funds to the trust. Called from DApp\n  function fundTrust () public payable onlyGrantor {\n    emit TrustFunded(msg.value, address(this).balance);\n  }\n\n  /**\n   * @notice makePayment is called at an interval specified in the OpenLaw contract to distribute payments to beneficiary\n   */\n  function makePayment () public onlyOpenLaw {\n    uint payment; \n    uint trustBalance = address(this).balance;\n    payment = trustBalance * paymentPercentInBP / 10000;\n\n    require(payment > 0 && payment < trustBalance, \"make sure there are sufficient funds in the trust\");\n    beneficiary.transfer(payment);\n    emit PaymentMade(payment, address(this).balance);\n  } \n  \n  /**\n   * @notice changePercentage is called by the grantor or trustee in a DApp to change the percentage paid to the beneficiary\n   * @param _newPaymentPercentInBP - new payment percentage in basis points\n   */\n  function changePercentage (uint _newPaymentPercentInBP) public grantorOrTrustee {\n    require(_newPaymentPercentInBP > 0, \"please select a value greater than 0.0001\");\n    paymentPercentInBP = _newPaymentPercentInBP;\n  }\n\n\n  /// @notice terminateTrust is called by the grantor or trustee in a DApp to kill this contract and send remaining funds to beneficiary\n  function terminateTrust () public grantorOrTrustee {\n    selfdestruct(beneficiary);\n  }\n}",
  "sourcePath": "/home/josh/dev/smart-trusts/contracts/SmartTrust.sol",
  "compiler": {
    "name": "solc",
    "version": "0.4.24+commit.e67f0147.Emscripten.clang"
  },
  "schemaVersion": "2.0.1",
  "updatedAt": "2018-12-12T03:48:42.861Z"
}