{
  "contractName": "SmartTrust",
  "abi": [
    {
      "payable": true,
      "stateMutability": "payable",
      "type": "fallback"
    },
    {
      "anonymous": false,
      "inputs": [
        {
          "indexed": false,
          "name": "funding",
          "type": "uint256"
        },
        {
          "indexed": false,
          "name": "trustValue",
          "type": "uint256"
        }
      ],
      "name": "TrustFunded",
      "type": "event"
    },
    {
      "anonymous": false,
      "inputs": [
        {
          "indexed": false,
          "name": "payment",
          "type": "uint256"
        },
        {
          "indexed": false,
          "name": "trustValue",
          "type": "uint256"
        }
      ],
      "name": "PaymentMade",
      "type": "event"
    },
    {
      "constant": false,
      "inputs": [
        {
          "name": "_grantor",
          "type": "address"
        },
        {
          "name": "_trustee",
          "type": "address"
        },
        {
          "name": "_beneficiary",
          "type": "address"
        },
        {
          "name": "_basisPoints",
          "type": "uint256"
        }
      ],
      "name": "initializeParties",
      "outputs": [],
      "payable": true,
      "stateMutability": "payable",
      "type": "function"
    },
    {
      "constant": false,
      "inputs": [],
      "name": "fundTrust",
      "outputs": [],
      "payable": true,
      "stateMutability": "payable",
      "type": "function"
    },
    {
      "constant": false,
      "inputs": [],
      "name": "makePayment",
      "outputs": [],
      "payable": false,
      "stateMutability": "nonpayable",
      "type": "function"
    },
    {
      "constant": false,
      "inputs": [
        {
          "name": "_newPaymentPercentInBP",
          "type": "uint256"
        }
      ],
      "name": "changePercentage",
      "outputs": [],
      "payable": false,
      "stateMutability": "nonpayable",
      "type": "function"
    },
    {
      "constant": false,
      "inputs": [
        {
          "name": "_amount",
          "type": "uint256"
        }
      ],
      "name": "withdrawFromTrust",
      "outputs": [],
      "payable": false,
      "stateMutability": "nonpayable",
      "type": "function"
    },
    {
      "constant": false,
      "inputs": [],
      "name": "terminateTrust",
      "outputs": [],
      "payable": false,
      "stateMutability": "nonpayable",
      "type": "function"
    }
  ],
  "bytecode": "0x608060405234801561001057600080fd5b50610d80806100206000396000f300608060405260043610610078576000357c0100000000000000000000000000000000000000000000000000000000900463ffffffff168063012d6dce14610131578063759f8843146101b157806375c5003e146101bb578063d15ed08f146101d2578063d41ab7b5146101ff578063d8d797001461022c575b6000809054906101000a900473ffffffffffffffffffffffffffffffffffffffff1673ffffffffffffffffffffffffffffffffffffffff163373ffffffffffffffffffffffffffffffffffffffff16141580156100d55750600034115b15610126573373ffffffffffffffffffffffffffffffffffffffff166108fc349081150290604051600060405180830381858888f19350505050158015610120573d6000803e3d6000fd5b5061012f565b61012e610243565b5b005b6101af600480360381019080803573ffffffffffffffffffffffffffffffffffffffff169060200190929190803573ffffffffffffffffffffffffffffffffffffffff169060200190929190803573ffffffffffffffffffffffffffffffffffffffff16906020019092919080359060200190929190505050610385565b005b6101b9610243565b005b3480156101c757600080fd5b506101d061055b565b005b3480156101de57600080fd5b506101fd600480360381019080803590602001909291905050506106d8565b005b34801561020b57600080fd5b5061022a600480360381019080803590602001909291905050506108e2565b005b34801561023857600080fd5b50610241610acc565b005b6000809054906101000a900473ffffffffffffffffffffffffffffffffffffffff1673ffffffffffffffffffffffffffffffffffffffff163373ffffffffffffffffffffffffffffffffffffffff1614151561032d576040517f08c379a000000000000000000000000000000000000000000000000000000000815260040180806020018281038252602b8152602001807f7568206f682c20796f7520646f6e27742068617665207468652072696768742081526020017f7065726d697373696f6e7300000000000000000000000000000000000000000081525060400191505060405180910390fd5b7f2fc2351e52d27875febe86ba14cd20dd79a832de23c339f6ab3f6ec2cbaf017d343073ffffffffffffffffffffffffffffffffffffffff1631604051808381526020018281526020019250505060405180910390a1565b600073ffffffffffffffffffffffffffffffffffffffff16600360009054906101000a900473ffffffffffffffffffffffffffffffffffffffff1673ffffffffffffffffffffffffffffffffffffffff1614151561044b576040517f08c379a000000000000000000000000000000000000000000000000000000000815260040180806020018281038252601a8152602001807f636f6e747261637420697320616c726561647920696e2075736500000000000081525060200191505060405180910390fd5b33600360006101000a81548173ffffffffffffffffffffffffffffffffffffffff021916908373ffffffffffffffffffffffffffffffffffffffff160217905550836000806101000a81548173ffffffffffffffffffffffffffffffffffffffff021916908373ffffffffffffffffffffffffffffffffffffffff16021790555081600160006101000a81548173ffffffffffffffffffffffffffffffffffffffff021916908373ffffffffffffffffffffffffffffffffffffffff16021790555082600260006101000a81548173ffffffffffffffffffffffffffffffffffffffff021916908373ffffffffffffffffffffffffffffffffffffffff1602179055508060048190555050505050565b6000809054906101000a900473ffffffffffffffffffffffffffffffffffffffff1673ffffffffffffffffffffffffffffffffffffffff163373ffffffffffffffffffffffffffffffffffffffff1614806106035750600260009054906101000a900473ffffffffffffffffffffffffffffffffffffffff1673ffffffffffffffffffffffffffffffffffffffff163373ffffffffffffffffffffffffffffffffffffffff16145b151561069d576040517f08c379a000000000000000000000000000000000000000000000000000000000815260040180806020018281038252602b8152602001807f7568206f682c20796f7520646f6e27742068617665207468652072696768742081526020017f7065726d697373696f6e7300000000000000000000000000000000000000000081525060400191505060405180910390fd5b600160009054906101000a900473ffffffffffffffffffffffffffffffffffffffff1673ffffffffffffffffffffffffffffffffffffffff16ff5b6000809054906101000a900473ffffffffffffffffffffffffffffffffffffffff1673ffffffffffffffffffffffffffffffffffffffff163373ffffffffffffffffffffffffffffffffffffffff161415156107c2576040517f08c379a000000000000000000000000000000000000000000000000000000000815260040180806020018281038252602b8152602001807f7568206f682c20796f7520646f6e27742068617665207468652072696768742081526020017f7065726d697373696f6e7300000000000000000000000000000000000000000081525060400191505060405180910390fd5b3073ffffffffffffffffffffffffffffffffffffffff16318111151515610877576040517f08c379a000000000000000000000000000000000000000000000000000000000815260040180806020018281038252602a8152602001807f63616e2774207769746864726177206d6f7265207468616e207468652074727581526020017f73742062616c616e63650000000000000000000000000000000000000000000081525060400191505060405180910390fd5b6000809054906101000a900473ffffffffffffffffffffffffffffffffffffffff1673ffffffffffffffffffffffffffffffffffffffff166108fc829081150290604051600060405180830381858888f193505050501580156108de573d6000803e3d6000fd5b5050565b6000809054906101000a900473ffffffffffffffffffffffffffffffffffffffff1673ffffffffffffffffffffffffffffffffffffffff163373ffffffffffffffffffffffffffffffffffffffff16148061098a5750600260009054906101000a900473ffffffffffffffffffffffffffffffffffffffff1673ffffffffffffffffffffffffffffffffffffffff163373ffffffffffffffffffffffffffffffffffffffff16145b1515610a24576040517f08c379a000000000000000000000000000000000000000000000000000000000815260040180806020018281038252602b8152602001807f7568206f682c20796f7520646f6e27742068617665207468652072696768742081526020017f7065726d697373696f6e7300000000000000000000000000000000000000000081525060400191505060405180910390fd5b600081111515610ac2576040517f08c379a00000000000000000000000000000000000000000000000000000000081526004018080602001828103825260298152602001807f706c656173652073656c65637420612076616c7565206772656174657220746881526020017f616e20302e30303031000000000000000000000000000000000000000000000081525060400191505060405180910390fd5b8060048190555050565b600080600360009054906101000a900473ffffffffffffffffffffffffffffffffffffffff1673ffffffffffffffffffffffffffffffffffffffff163373ffffffffffffffffffffffffffffffffffffffff16141515610bba576040517f08c379a000000000000000000000000000000000000000000000000000000000815260040180806020018281038252602b8152602001807f7568206f682c20796f7520646f6e27742068617665207468652072696768742081526020017f7065726d697373696f6e7300000000000000000000000000000000000000000081525060400191505060405180910390fd5b3073ffffffffffffffffffffffffffffffffffffffff163190506127106004548202811515610be557fe5b049150600082118015610bf757508082105b1515610c91576040517f08c379a00000000000000000000000000000000000000000000000000000000081526004018080602001828103825260318152602001807f6d616b652073757265207468657265206172652073756666696369656e74206681526020017f756e647320696e2074686520747275737400000000000000000000000000000081525060400191505060405180910390fd5b600160009054906101000a900473ffffffffffffffffffffffffffffffffffffffff1673ffffffffffffffffffffffffffffffffffffffff166108fc839081150290604051600060405180830381858888f19350505050158015610cf9573d6000803e3d6000fd5b507f0e9e4ec6fa83fe2a2893fd5d6517a890df20f72cc0ba40495b21e65d12223503823073ffffffffffffffffffffffffffffffffffffffff1631604051808381526020018281526020019250505060405180910390a150505600a165627a7a72305820578f8ba4efe5d8070e357923954f01fe2d8112dc154d7922205ce4d322c7d3f60029",
  "source": "pragma solidity ^0.4.24;\n\n/**\n * @title SmartTrust\n * @author Josh Ma\n * @notice SmartTrust is the entry point for interacting with a corresponding OpenLaw 'Smart Trusts' agreement\n **/\ncontract SmartTrust {\n  /// @notice TrustFunded is emitted when the Grantor adds funds to the trust \n  event TrustFunded(uint funding, uint trustValue);\n  \n  /// @notice PaymentMade is emitted every time a payment is made to the beneficiary\n  event PaymentMade(uint payment, uint trustValue);\n  \n  address grantor;\n  address beneficiary;\n  address trustee;\n  address openlaw;\n\n  // percentages in this contract will be represented by basis points to permit small percentages i.e. 0.01% = 1 BP \n  uint paymentPercentInBP; \n\n  modifier onlyGrantor {\n    require(msg.sender == grantor, \"uh oh, you don't have the right permissions\");\n    _;\n  } \n\n  modifier grantorOrTrustee {\n    require(msg.sender == grantor || msg.sender == trustee, \"uh oh, you don't have the right permissions\");\n    _;\n  }\n\n  modifier onlyBeneficiary {\n    require(msg.sender == beneficiary, \"uh oh, you don't have the right permissions\");\n    _;\n  }\n\n  modifier onlyOpenLaw {\n    require(msg.sender == openlaw, \"uh oh, you don't have the right permissions\");\n    _;\n  }\n\n  /**\n   * @notice initializeParties is called by OpenLaw when the trust agreement is signed \n   * @param _grantor - grantor address\n   * @param _trustee - trustee address\n   * @param _beneficiary - beneficiary address\n   * @param _basisPoints - percentage of trust paid per period in basis points\n   */\n  function initializeParties (address _grantor, address _trustee, address _beneficiary, uint _basisPoints) public payable {\n    \n    // require that the openlaw variable is unset to implement access control \n    require(openlaw == address(0), \"contract is already in use\");\n    openlaw = msg.sender;\n    grantor = _grantor;\n    beneficiary = _beneficiary;\n    trustee = _trustee;\n    paymentPercentInBP = _basisPoints;\n  }\n\n  /// @notice fallback function which refunds ether if the caller is not the grantor. Will accept the ether if caller is the grantor\n  function () external payable {\n    if (msg.sender != grantor && msg.value > 0){\n      msg.sender.transfer(msg.value);\n    } else {\n      fundTrust();\n    }\n  }\n\n  /// @notice fundTrust allows the grantor to contribute funds to the trust. Called from DApp\n  function fundTrust () public payable onlyGrantor {\n    emit TrustFunded(msg.value, address(this).balance);\n  }\n\n  /**\n   * @notice makePayment is called at an interval specified in the OpenLaw contract to distribute payments to beneficiary\n   */\n  function makePayment () public onlyOpenLaw {\n    uint payment; \n    uint trustBalance = address(this).balance;\n    payment = trustBalance * paymentPercentInBP / 10000;\n\n    require(payment > 0 && payment < trustBalance, \"make sure there are sufficient funds in the trust\");\n    beneficiary.transfer(payment);\n    emit PaymentMade(payment, address(this).balance);\n  } \n  \n  /**\n   * @notice changePercentage is called by the grantor or trustee in a DApp to change the percentage paid to the beneficiary\n   * @param _newPaymentPercentInBP - new payment percentage in basis points\n   */\n  function changePercentage (uint _newPaymentPercentInBP) public grantorOrTrustee {\n    require(_newPaymentPercentInBP > 0, \"please select a value greater than 0.0001\");\n    paymentPercentInBP = _newPaymentPercentInBP;\n  }\n\n  function withdrawFromTrust (uint _amount) public onlyGrantor {\n    require(_amount <= address(this).balance, \"can't withdraw more than the trust balance\");\n    grantor.transfer(_amount);\n  }\n\n  /// @notice terminateTrust is called by the grantor or trustee in a DApp to kill this contract and send remaining funds to beneficiary\n  function terminateTrust () public grantorOrTrustee {\n    selfdestruct(beneficiary);\n  }\n}",
  "sourcePath": "/home/josh/dev/smart-trusts/contracts/SmartTrust.sol",
  "compiler": {
    "name": "solc",
    "version": "0.4.24+commit.e67f0147.Emscripten.clang"
  },
  "schemaVersion": "2.0.1",
  "updatedAt": "2018-12-12T03:52:33.019Z"
}