{
  "contractName": "SmartTrust",
  "abi": [
    {
      "payable": true,
      "stateMutability": "payable",
      "type": "fallback"
    },
    {
      "anonymous": false,
      "inputs": [
        {
          "indexed": false,
          "name": "grantor",
          "type": "address"
        },
        {
          "indexed": false,
          "name": "trustee",
          "type": "address"
        },
        {
          "indexed": false,
          "name": "beneficiary",
          "type": "address"
        },
        {
          "indexed": false,
          "name": "basisPoints",
          "type": "uint256"
        }
      ],
      "name": "TrustInitialized",
      "type": "event"
    },
    {
      "anonymous": false,
      "inputs": [
        {
          "indexed": false,
          "name": "funding",
          "type": "uint256"
        },
        {
          "indexed": false,
          "name": "trustValue",
          "type": "uint256"
        }
      ],
      "name": "TrustFunded",
      "type": "event"
    },
    {
      "anonymous": false,
      "inputs": [
        {
          "indexed": false,
          "name": "payment",
          "type": "uint256"
        },
        {
          "indexed": false,
          "name": "trustValue",
          "type": "uint256"
        }
      ],
      "name": "PaymentMade",
      "type": "event"
    },
    {
      "constant": false,
      "inputs": [
        {
          "name": "_grantor",
          "type": "address"
        },
        {
          "name": "_trustee",
          "type": "address"
        },
        {
          "name": "_beneficiary",
          "type": "address"
        },
        {
          "name": "_basisPoints",
          "type": "uint256"
        }
      ],
      "name": "initializeTrust",
      "outputs": [],
      "payable": true,
      "stateMutability": "payable",
      "type": "function"
    },
    {
      "constant": true,
      "inputs": [],
      "name": "getTrustData",
      "outputs": [
        {
          "name": "",
          "type": "address"
        },
        {
          "name": "",
          "type": "address"
        },
        {
          "name": "",
          "type": "address"
        },
        {
          "name": "",
          "type": "uint256"
        },
        {
          "name": "",
          "type": "uint256"
        },
        {
          "name": "",
          "type": "uint256"
        }
      ],
      "payable": false,
      "stateMutability": "view",
      "type": "function"
    },
    {
      "constant": false,
      "inputs": [],
      "name": "fundTrust",
      "outputs": [],
      "payable": true,
      "stateMutability": "payable",
      "type": "function"
    },
    {
      "constant": false,
      "inputs": [],
      "name": "makePayment",
      "outputs": [],
      "payable": false,
      "stateMutability": "nonpayable",
      "type": "function"
    },
    {
      "constant": false,
      "inputs": [
        {
          "name": "_newPaymentPercentInBP",
          "type": "uint256"
        }
      ],
      "name": "changePercentage",
      "outputs": [],
      "payable": false,
      "stateMutability": "nonpayable",
      "type": "function"
    },
    {
      "constant": false,
      "inputs": [
        {
          "name": "_amount",
          "type": "uint256"
        }
      ],
      "name": "withdrawFromTrust",
      "outputs": [],
      "payable": false,
      "stateMutability": "nonpayable",
      "type": "function"
    },
    {
      "constant": false,
      "inputs": [],
      "name": "terminateTrust",
      "outputs": [],
      "payable": false,
      "stateMutability": "nonpayable",
      "type": "function"
    }
  ],
  "bytecode": "0x608060405234801561001057600080fd5b50611052806100206000396000f300608060405260043610610083576000357c0100000000000000000000000000000000000000000000000000000000900463ffffffff168063116692f91461013c57806340f073cc1461020e578063759f88431461028e57806375c5003e14610298578063d15ed08f146102af578063d41ab7b5146102dc578063d8d7970014610309575b6000809054906101000a900473ffffffffffffffffffffffffffffffffffffffff1673ffffffffffffffffffffffffffffffffffffffff163373ffffffffffffffffffffffffffffffffffffffff16141580156100e05750600034115b15610131573373ffffffffffffffffffffffffffffffffffffffff166108fc349081150290604051600060405180830381858888f1935050505015801561012b573d6000803e3d6000fd5b5061013a565b610139610320565b5b005b34801561014857600080fd5b50610151610462565b604051808773ffffffffffffffffffffffffffffffffffffffff1673ffffffffffffffffffffffffffffffffffffffff1681526020018673ffffffffffffffffffffffffffffffffffffffff1673ffffffffffffffffffffffffffffffffffffffff1681526020018573ffffffffffffffffffffffffffffffffffffffff1673ffffffffffffffffffffffffffffffffffffffff168152602001848152602001838152602001828152602001965050505050505060405180910390f35b61028c600480360381019080803573ffffffffffffffffffffffffffffffffffffffff169060200190929190803573ffffffffffffffffffffffffffffffffffffffff169060200190929190803573ffffffffffffffffffffffffffffffffffffffff16906020019092919080359060200190929190505050610505565b005b610296610320565b005b3480156102a457600080fd5b506102ad61081d565b005b3480156102bb57600080fd5b506102da6004803603810190808035906020019092919050505061099a565b005b3480156102e857600080fd5b5061030760048036038101908080359060200190929190505050610ba4565b005b34801561031557600080fd5b5061031e610d8e565b005b6000809054906101000a900473ffffffffffffffffffffffffffffffffffffffff1673ffffffffffffffffffffffffffffffffffffffff163373ffffffffffffffffffffffffffffffffffffffff1614151561040a576040517f08c379a000000000000000000000000000000000000000000000000000000000815260040180806020018281038252602b8152602001807f7568206f682c20796f7520646f6e27742068617665207468652072696768742081526020017f7065726d697373696f6e7300000000000000000000000000000000000000000081525060400191505060405180910390fd5b7f2fc2351e52d27875febe86ba14cd20dd79a832de23c339f6ab3f6ec2cbaf017d343073ffffffffffffffffffffffffffffffffffffffff1631604051808381526020018281526020019250505060405180910390a1565b6000806000806000806000809054906101000a900473ffffffffffffffffffffffffffffffffffffffff16600160009054906101000a900473ffffffffffffffffffffffffffffffffffffffff16600260009054906101000a900473ffffffffffffffffffffffffffffffffffffffff166004546005543073ffffffffffffffffffffffffffffffffffffffff1631955095509550955095509550909192939495565b600073ffffffffffffffffffffffffffffffffffffffff16600360009054906101000a900473ffffffffffffffffffffffffffffffffffffffff1673ffffffffffffffffffffffffffffffffffffffff161415156105cb576040517f08c379a000000000000000000000000000000000000000000000000000000000815260040180806020018281038252601a8152602001807f636f6e747261637420697320616c726561647920696e2075736500000000000081525060200191505060405180910390fd5b33600360006101000a81548173ffffffffffffffffffffffffffffffffffffffff021916908373ffffffffffffffffffffffffffffffffffffffff160217905550836000806101000a81548173ffffffffffffffffffffffffffffffffffffffff021916908373ffffffffffffffffffffffffffffffffffffffff16021790555081600260006101000a81548173ffffffffffffffffffffffffffffffffffffffff021916908373ffffffffffffffffffffffffffffffffffffffff16021790555082600160006101000a81548173ffffffffffffffffffffffffffffffffffffffff021916908373ffffffffffffffffffffffffffffffffffffffff1602179055508060058190555060006004819055507f25d95dadb25594a903a494c86294f6c5cea9f214ddd72819407a063e72f111466000809054906101000a900473ffffffffffffffffffffffffffffffffffffffff16600160009054906101000a900473ffffffffffffffffffffffffffffffffffffffff16600260009054906101000a900473ffffffffffffffffffffffffffffffffffffffff16600554604051808573ffffffffffffffffffffffffffffffffffffffff1673ffffffffffffffffffffffffffffffffffffffff1681526020018473ffffffffffffffffffffffffffffffffffffffff1673ffffffffffffffffffffffffffffffffffffffff1681526020018373ffffffffffffffffffffffffffffffffffffffff1673ffffffffffffffffffffffffffffffffffffffff16815260200182815260200194505050505060405180910390a150505050565b6000809054906101000a900473ffffffffffffffffffffffffffffffffffffffff1673ffffffffffffffffffffffffffffffffffffffff163373ffffffffffffffffffffffffffffffffffffffff1614806108c55750600160009054906101000a900473ffffffffffffffffffffffffffffffffffffffff1673ffffffffffffffffffffffffffffffffffffffff163373ffffffffffffffffffffffffffffffffffffffff16145b151561095f576040517f08c379a000000000000000000000000000000000000000000000000000000000815260040180806020018281038252602b8152602001807f7568206f682c20796f7520646f6e27742068617665207468652072696768742081526020017f7065726d697373696f6e7300000000000000000000000000000000000000000081525060400191505060405180910390fd5b600260009054906101000a900473ffffffffffffffffffffffffffffffffffffffff1673ffffffffffffffffffffffffffffffffffffffff16ff5b6000809054906101000a900473ffffffffffffffffffffffffffffffffffffffff1673ffffffffffffffffffffffffffffffffffffffff163373ffffffffffffffffffffffffffffffffffffffff16141515610a84576040517f08c379a000000000000000000000000000000000000000000000000000000000815260040180806020018281038252602b8152602001807f7568206f682c20796f7520646f6e27742068617665207468652072696768742081526020017f7065726d697373696f6e7300000000000000000000000000000000000000000081525060400191505060405180910390fd5b3073ffffffffffffffffffffffffffffffffffffffff16318111151515610b39576040517f08c379a000000000000000000000000000000000000000000000000000000000815260040180806020018281038252602a8152602001807f63616e2774207769746864726177206d6f7265207468616e207468652074727581526020017f73742062616c616e63650000000000000000000000000000000000000000000081525060400191505060405180910390fd5b6000809054906101000a900473ffffffffffffffffffffffffffffffffffffffff1673ffffffffffffffffffffffffffffffffffffffff166108fc829081150290604051600060405180830381858888f19350505050158015610ba0573d6000803e3d6000fd5b5050565b6000809054906101000a900473ffffffffffffffffffffffffffffffffffffffff1673ffffffffffffffffffffffffffffffffffffffff163373ffffffffffffffffffffffffffffffffffffffff161480610c4c5750600160009054906101000a900473ffffffffffffffffffffffffffffffffffffffff1673ffffffffffffffffffffffffffffffffffffffff163373ffffffffffffffffffffffffffffffffffffffff16145b1515610ce6576040517f08c379a000000000000000000000000000000000000000000000000000000000815260040180806020018281038252602b8152602001807f7568206f682c20796f7520646f6e27742068617665207468652072696768742081526020017f7065726d697373696f6e7300000000000000000000000000000000000000000081525060400191505060405180910390fd5b600081111515610d84576040517f08c379a00000000000000000000000000000000000000000000000000000000081526004018080602001828103825260298152602001807f706c656173652073656c65637420612076616c7565206772656174657220746881526020017f616e20302e30303031000000000000000000000000000000000000000000000081525060400191505060405180910390fd5b8060058190555050565b600080600360009054906101000a900473ffffffffffffffffffffffffffffffffffffffff1673ffffffffffffffffffffffffffffffffffffffff163373ffffffffffffffffffffffffffffffffffffffff16141515610e7c576040517f08c379a000000000000000000000000000000000000000000000000000000000815260040180806020018281038252602b8152602001807f7568206f682c20796f7520646f6e27742068617665207468652072696768742081526020017f7065726d697373696f6e7300000000000000000000000000000000000000000081525060400191505060405180910390fd5b3073ffffffffffffffffffffffffffffffffffffffff163190506127106005548202811515610ea757fe5b049150600082118015610eb957508082105b1515610f53576040517f08c379a00000000000000000000000000000000000000000000000000000000081526004018080602001828103825260318152602001807f6d616b652073757265207468657265206172652073756666696369656e74206681526020017f756e647320696e2074686520747275737400000000000000000000000000000081525060400191505060405180910390fd5b600260009054906101000a900473ffffffffffffffffffffffffffffffffffffffff1673ffffffffffffffffffffffffffffffffffffffff166108fc839081150290604051600060405180830381858888f19350505050158015610fbb573d6000803e3d6000fd5b50816004600082825401925050819055507f0e9e4ec6fa83fe2a2893fd5d6517a890df20f72cc0ba40495b21e65d12223503823073ffffffffffffffffffffffffffffffffffffffff1631604051808381526020018281526020019250505060405180910390a150505600a165627a7a72305820d05c15c5a628913d948852af6d9d022c6ddd3cdfdab286339b7c61c7f66610d80029",
  "source": "pragma solidity ^0.4.24;\n\n/**\n * @title SmartTrust\n * @author Josh Ma\n * @notice SmartTrust is the entry point for interacting with a corresponding OpenLaw 'Smart Trusts' agreement\n **/\ncontract SmartTrust {\n\n  /// @notice TrustInitialized is emitted when the trust is initialized \n  event TrustInitialized(address grantor, address trustee, address beneficiary, uint basisPoints);\n\n  /// @notice TrustFunded is emitted when the Grantor adds funds to the trust \n  event TrustFunded(uint funding, uint trustValue);\n  \n  /// @notice PaymentMade is emitted every time a payment is made to the beneficiary\n  event PaymentMade(uint payment, uint trustValue);\n  \n  address grantor;\n  address trustee;\n  address beneficiary;\n  address openlaw;\n  uint trustPaid;\n\n  // percentages in this contract will be represented by basis points to permit small percentages i.e. 0.01% = 1 BP \n  uint paymentPercentInBP; \n\n  modifier onlyGrantor {\n    require(msg.sender == grantor, \"uh oh, you don't have the right permissions\");\n    _;\n  } \n\n  modifier grantorOrTrustee {\n    require(msg.sender == grantor || msg.sender == trustee, \"uh oh, you don't have the right permissions\");\n    _;\n  }\n\n  modifier onlyBeneficiary {\n    require(msg.sender == beneficiary, \"uh oh, you don't have the right permissions\");\n    _;\n  }\n\n  modifier onlyOpenLaw {\n    require(msg.sender == openlaw, \"uh oh, you don't have the right permissions\");\n    _;\n  }\n\n  /**\n   * @notice initializeTrust is called by OpenLaw when the trust agreement is signed \n   * @param _grantor - grantor address\n   * @param _trustee - trustee address\n   * @param _beneficiary - beneficiary address\n   * @param _basisPoints - percentage of trust paid per period in basis points\n   */\n  function initializeTrust (address _grantor, address _trustee, address _beneficiary, uint _basisPoints) public payable {\n    \n    // require that the openlaw variable is unset to implement access control \n    require(openlaw == address(0), \"contract is already in use\");\n    openlaw = msg.sender;\n    grantor = _grantor;\n    beneficiary = _beneficiary;\n    trustee = _trustee;\n    paymentPercentInBP = _basisPoints;\n    trustPaid = 0;\n    emit TrustInitialized(grantor, trustee, beneficiary, paymentPercentInBP);\n  }\n\n  /**\n   * @notice getTrustData returns all relevant information in this contract\n   */\n  function getTrustData () public view returns \n    (address, address, address, uint, uint, uint) {\n    return(grantor, trustee, beneficiary, trustPaid, paymentPercentInBP, address(this).balance);\n  }\n\n  /// @notice fallback function which refunds ether if the caller is not the grantor. Will accept the ether if caller is the grantor\n  function () external payable {\n    if (msg.sender != grantor && msg.value > 0){\n      msg.sender.transfer(msg.value);\n    } else {\n      fundTrust();\n    }\n  }\n\n  /// @notice fundTrust allows the grantor to contribute funds to the trust. Called from DApp\n  function fundTrust () public payable onlyGrantor {\n    emit TrustFunded(msg.value, address(this).balance);\n  }\n\n  /**\n   * @notice makePayment is called at an interval specified in the OpenLaw contract to distribute payments to beneficiary\n   */\n  function makePayment () public onlyOpenLaw {\n    uint payment; \n    uint trustBalance = address(this).balance;\n    payment = trustBalance * paymentPercentInBP / 10000;\n\n    require(payment > 0 && payment < trustBalance, \"make sure there are sufficient funds in the trust\");\n    beneficiary.transfer(payment);\n    trustPaid += payment;\n    emit PaymentMade(payment, address(this).balance);\n  } \n  \n  /**\n   * @notice changePercentage is called by the grantor or trustee in a DApp to change the percentage paid to the beneficiary\n   * @param _newPaymentPercentInBP - new payment percentage in basis points\n   */\n  function changePercentage (uint _newPaymentPercentInBP) public grantorOrTrustee {\n    require(_newPaymentPercentInBP > 0, \"please select a value greater than 0.0001\");\n    paymentPercentInBP = _newPaymentPercentInBP;\n  }\n\n  function withdrawFromTrust (uint _amount) public onlyGrantor {\n    require(_amount <= address(this).balance, \"can't withdraw more than the trust balance\");\n    grantor.transfer(_amount);\n  }\n\n  /// @notice terminateTrust is called by the grantor or trustee in a DApp to kill this contract and send remaining funds to beneficiary\n  function terminateTrust () public grantorOrTrustee {\n    selfdestruct(beneficiary);\n  }\n}",
  "sourcePath": "/home/josh/dev/smart-trusts/contracts/SmartTrust.sol",
  "compiler": {
    "name": "solc",
    "version": "0.4.24+commit.e67f0147.Emscripten.clang"
  },
  "schemaVersion": "2.0.1",
  "updatedAt": "2018-12-12T07:10:45.342Z"
}