{
  "contractName": "SmartTrust",
  "abi": [
    {
      "payable": true,
      "stateMutability": "payable",
      "type": "fallback"
    },
    {
      "anonymous": false,
      "inputs": [
        {
          "indexed": false,
          "name": "grantor",
          "type": "address"
        },
        {
          "indexed": false,
          "name": "trustee",
          "type": "address"
        },
        {
          "indexed": false,
          "name": "beneficiary",
          "type": "address"
        },
        {
          "indexed": false,
          "name": "basisPoints",
          "type": "uint256"
        }
      ],
      "name": "TrustInitialized",
      "type": "event"
    },
    {
      "anonymous": false,
      "inputs": [
        {
          "indexed": false,
          "name": "funding",
          "type": "uint256"
        },
        {
          "indexed": false,
          "name": "trustValue",
          "type": "uint256"
        }
      ],
      "name": "TrustFunded",
      "type": "event"
    },
    {
      "anonymous": false,
      "inputs": [
        {
          "indexed": false,
          "name": "payment",
          "type": "uint256"
        },
        {
          "indexed": false,
          "name": "trustPaid",
          "type": "uint256"
        },
        {
          "indexed": false,
          "name": "trustValue",
          "type": "uint256"
        },
        {
          "indexed": false,
          "name": "paymentPercentInBP",
          "type": "uint256"
        }
      ],
      "name": "PaymentMade",
      "type": "event"
    },
    {
      "constant": false,
      "inputs": [
        {
          "name": "_grantor",
          "type": "address"
        },
        {
          "name": "_trustee",
          "type": "address"
        },
        {
          "name": "_beneficiary",
          "type": "address"
        },
        {
          "name": "_basisPoints",
          "type": "uint256"
        }
      ],
      "name": "initializeTrust",
      "outputs": [],
      "payable": true,
      "stateMutability": "payable",
      "type": "function"
    },
    {
      "constant": true,
      "inputs": [],
      "name": "getTrustData",
      "outputs": [
        {
          "name": "",
          "type": "address"
        },
        {
          "name": "",
          "type": "address"
        },
        {
          "name": "",
          "type": "address"
        },
        {
          "name": "",
          "type": "uint256"
        },
        {
          "name": "",
          "type": "uint256"
        },
        {
          "name": "",
          "type": "uint256"
        }
      ],
      "payable": false,
      "stateMutability": "view",
      "type": "function"
    },
    {
      "constant": false,
      "inputs": [],
      "name": "fundTrust",
      "outputs": [],
      "payable": true,
      "stateMutability": "payable",
      "type": "function"
    },
    {
      "constant": false,
      "inputs": [],
      "name": "makePayment",
      "outputs": [],
      "payable": false,
      "stateMutability": "nonpayable",
      "type": "function"
    },
    {
      "constant": false,
      "inputs": [
        {
          "name": "_newPaymentPercentInBP",
          "type": "uint256"
        }
      ],
      "name": "changePercentage",
      "outputs": [],
      "payable": false,
      "stateMutability": "nonpayable",
      "type": "function"
    },
    {
      "constant": false,
      "inputs": [
        {
          "name": "_amount",
          "type": "uint256"
        }
      ],
      "name": "withdrawFromTrust",
      "outputs": [],
      "payable": false,
      "stateMutability": "nonpayable",
      "type": "function"
    },
    {
      "constant": false,
      "inputs": [],
      "name": "terminateTrust",
      "outputs": [],
      "payable": false,
      "stateMutability": "nonpayable",
      "type": "function"
    }
  ],
  "bytecode": "0x608060405234801561001057600080fd5b5061083c806100206000396000f3006080604052600436106100825763ffffffff7c0100000000000000000000000000000000000000000000000000000000600035041663116692f981146100de57806340f073cc14610135578063759f8843146100d457806375c5003e14610158578063d15ed08f1461016d578063d41ab7b514610185578063d8d797001461019d575b600054600160a060020a0316331480159061009d5750600034115b156100d45760405133903480156108fc02916000818181858888f193505050501580156100ce573d6000803e3d6000fd5b506100dc565b6100dc6101b2565b005b3480156100ea57600080fd5b506100f3610253565b60408051600160a060020a039788168152958716602087015293909516848401526060840191909152608083015260a082019290925290519081900360c00190f35b6100dc600160a060020a036004358116906024358116906044351660643561027e565b34801561016457600080fd5b506100dc610392565b34801561017957600080fd5b506100dc60043561041b565b34801561019157600080fd5b506100dc60043561053b565b3480156101a957600080fd5b506100dc610639565b600054600160a060020a03163314610216576040805160e560020a62461bcd02815260206004820152602b60248201526000805160206107f183398151915260448201526000805160206107d1833981519152606482015290519081900360840190fd5b604080513481523031602082015281517f2fc2351e52d27875febe86ba14cd20dd79a832de23c339f6ab3f6ec2cbaf017d929181900390910190a1565b600054600154600254600454600554600160a060020a03948516959385169490921692909190303190565b600354600160a060020a0316156102df576040805160e560020a62461bcd02815260206004820152601a60248201527f636f6e747261637420697320616c726561647920696e20757365000000000000604482015290519081900360640190fd5b600380543373ffffffffffffffffffffffffffffffffffffffff1991821617909155600080548216600160a060020a03878116919091178083556002805485168784161790819055600180549095168884161794859055600586905560049390935560408051918316825293821660208201529116818301526060810183905290517f25d95dadb25594a903a494c86294f6c5cea9f214ddd72819407a063e72f11146916080908290030190a150505050565b600054600160a060020a03163314806103b55750600154600160a060020a031633145b151561040d576040805160e560020a62461bcd02815260206004820152602b60248201526000805160206107f183398151915260448201526000805160206107d1833981519152606482015290519081900360840190fd5b600254600160a060020a0316ff5b600054600160a060020a0316331461047f576040805160e560020a62461bcd02815260206004820152602b60248201526000805160206107f183398151915260448201526000805160206107d1833981519152606482015290519081900360840190fd5b30318111156104fe576040805160e560020a62461bcd02815260206004820152602a60248201527f63616e2774207769746864726177206d6f7265207468616e207468652074727560448201527f73742062616c616e636500000000000000000000000000000000000000000000606482015290519081900360840190fd5b60008054604051600160a060020a039091169183156108fc02918491818181858888f19350505050158015610537573d6000803e3d6000fd5b5050565b600054600160a060020a031633148061055e5750600154600160a060020a031633145b15156105b6576040805160e560020a62461bcd02815260206004820152602b60248201526000805160206107f183398151915260448201526000805160206107d1833981519152606482015290519081900360840190fd5b60008111610634576040805160e560020a62461bcd02815260206004820152602960248201527f706c656173652073656c65637420612076616c7565206772656174657220746860448201527f616e20302e303030310000000000000000000000000000000000000000000000606482015290519081900360840190fd5b600555565b6003546000908190600160a060020a031633146106a2576040805160e560020a62461bcd02815260206004820152602b60248201526000805160206107f183398151915260448201526000805160206107d1833981519152606482015290519081900360840190fd5b5050600554612710303191820204906000821180156106c057508082105b151561073c576040805160e560020a62461bcd02815260206004820152603160248201527f6d616b652073757265207468657265206172652073756666696369656e74206660448201527f756e647320696e20746865207472757374000000000000000000000000000000606482015290519081900360840190fd5b600254604051600160a060020a039091169083156108fc029084906000818181858888f19350505050158015610776573d6000803e3d6000fd5b50600480548301908190556005546040805185815260208101939093523031838201526060830191909152517f95c4acf903eb698cf367efaaf79a8a58fb4554fcd8503b62af9f9c1b68b59e1e9181900360800190a1505056007065726d697373696f6e730000000000000000000000000000000000000000007568206f682c20796f7520646f6e277420686176652074686520726967687420a165627a7a723058207771bccd90d88001ea0534c31b62ab775c686c4758c4f80bc382639879695f910029",
  "source": "pragma solidity ^0.4.24;\n\n/**\n * @title SmartTrust\n * @author Josh Ma\n * @notice SmartTrust is the entry point for interacting with a corresponding OpenLaw 'Smart Trusts' agreement\n **/\ncontract SmartTrust {\n\n  /// @notice TrustInitialized is emitted when the trust is initialized \n  event TrustInitialized(address grantor, address trustee, address beneficiary, uint basisPoints);\n\n  /// @notice TrustFunded is emitted when the Grantor adds funds to the trust \n  event TrustFunded(uint funding, uint trustValue);\n  \n  /// @notice PaymentMade is emitted every time a payment is made to the beneficiary\n  event PaymentMade(uint payment, uint trustPaid, uint trustValue, uint paymentPercentInBP);\n  \n  address grantor;\n  address trustee;\n  address beneficiary;\n  address openlaw;\n  uint trustPaid;\n\n  // percentages in this contract will be represented by basis points to permit small percentages i.e. 0.01% = 1 BP \n  uint paymentPercentInBP; \n\n  modifier onlyGrantor {\n    require(msg.sender == grantor, \"uh oh, you don't have the right permissions\");\n    _;\n  } \n\n  modifier grantorOrTrustee {\n    require(msg.sender == grantor || msg.sender == trustee, \"uh oh, you don't have the right permissions\");\n    _;\n  }\n\n  modifier onlyBeneficiary {\n    require(msg.sender == beneficiary, \"uh oh, you don't have the right permissions\");\n    _;\n  }\n\n  modifier onlyOpenLaw {\n    require(msg.sender == openlaw, \"uh oh, you don't have the right permissions\");\n    _;\n  }\n\n  /**\n   * @notice initializeTrust is called by OpenLaw when the trust agreement is signed \n   * @param _grantor - grantor address\n   * @param _trustee - trustee address\n   * @param _beneficiary - beneficiary address\n   * @param _basisPoints - percentage of trust paid per period in basis points\n   */\n  function initializeTrust (address _grantor, address _trustee, address _beneficiary, uint _basisPoints) public payable {\n    \n    // require that the openlaw variable is unset to implement access control \n    require(openlaw == address(0), \"contract is already in use\");\n    openlaw = msg.sender;\n    grantor = _grantor;\n    beneficiary = _beneficiary;\n    trustee = _trustee;\n    paymentPercentInBP = _basisPoints;\n    trustPaid = 0;\n    emit TrustInitialized(grantor, trustee, beneficiary, paymentPercentInBP);\n  }\n\n  /**\n   * @notice getTrustData returns all relevant information in this contract\n   */\n  function getTrustData () public view returns \n    (address, address, address, uint, uint, uint) {\n    return(grantor, trustee, beneficiary, trustPaid, paymentPercentInBP, address(this).balance);\n  }\n\n  /// @notice fallback function which refunds ether if the caller is not the grantor. Will accept the ether if caller is the grantor\n  function () external payable {\n    if (msg.sender != grantor && msg.value > 0){\n      msg.sender.transfer(msg.value);\n    } else {\n      fundTrust();\n    }\n  }\n\n  /// @notice fundTrust allows the grantor to contribute funds to the trust. Called from DApp\n  function fundTrust () public payable onlyGrantor {\n    emit TrustFunded(msg.value, address(this).balance);\n  }\n\n  /**\n   * @notice makePayment is called at an interval specified in the OpenLaw contract to distribute payments to beneficiary\n   */\n  function makePayment () public onlyOpenLaw {\n    uint payment; \n    uint trustBalance = address(this).balance;\n    payment = trustBalance * paymentPercentInBP / 10000;\n\n    require(payment > 0 && payment < trustBalance, \"make sure there are sufficient funds in the trust\");\n    beneficiary.transfer(payment);\n    trustPaid += payment;\n    emit PaymentMade(payment, trustPaid, address(this).balance, paymentPercentInBP);\n  } \n  \n  /**\n   * @notice changePercentage is called by the grantor or trustee in a DApp to change the percentage paid to the beneficiary\n   * @param _newPaymentPercentInBP - new payment percentage in basis points\n   */\n  function changePercentage (uint _newPaymentPercentInBP) public grantorOrTrustee {\n    require(_newPaymentPercentInBP > 0, \"please select a value greater than 0.0001\");\n    paymentPercentInBP = _newPaymentPercentInBP;\n  }\n\n  function withdrawFromTrust (uint _amount) public onlyGrantor {\n    require(_amount <= address(this).balance, \"can't withdraw more than the trust balance\");\n    grantor.transfer(_amount);\n  }\n\n  /// @notice terminateTrust is called by the grantor or trustee in a DApp to kill this contract and send remaining funds to beneficiary\n  function terminateTrust () public grantorOrTrustee {\n    selfdestruct(beneficiary);\n  }\n}",
  "sourcePath": "/home/josh/dev/smart-trusts/contracts/SmartTrust.sol",
  "compiler": {
    "name": "solc",
    "version": "0.4.24+commit.e67f0147.Emscripten.clang"
  },
  "schemaVersion": "2.0.1",
  "updatedAt": "2018-12-13T05:57:47.199Z"
}